{
	"data": {
		"bytecode": {
			"linkReferences": {},
			"object": "608060405234801561001057600080fd5b506101e9806100206000396000f3fe608060405234801561001057600080fd5b50600436106100365760003560e01c80633fa4f2451461003b5780638dfa436314610059575b600080fd5b610043610075565b6040516100509190610117565b60405180910390f35b610073600480360381019061006e91906100cc565b61007b565b005b60005481565b610085828261008f565b6000819055505050565b600080821161009d57600080fd5b600082846100ab9190610132565b90508091505092915050565b6000813590506100c68161019c565b92915050565b600080604083850312156100df57600080fd5b60006100ed858286016100b7565b92505060206100fe858286016100b7565b9150509250929050565b61011181610163565b82525050565b600060208201905061012c6000830184610108565b92915050565b600061013d82610163565b915061014883610163565b9250826101585761015761016d565b5b828204905092915050565b6000819050919050565b7f4e487b7100000000000000000000000000000000000000000000000000000000600052601260045260246000fd5b6101a581610163565b81146101b057600080fd5b5056fea26469706673582212201a31e3855ace0f3a96513f5b2336d421e0376fd924096fbc2b9b6e693b84f4bd64736f6c63430008000033",
			"opcodes": "PUSH1 0x80 PUSH1 0x40 MSTORE CALLVALUE DUP1 ISZERO PUSH2 0x10 JUMPI PUSH1 0x0 DUP1 REVERT JUMPDEST POP PUSH2 0x1E9 DUP1 PUSH2 0x20 PUSH1 0x0 CODECOPY PUSH1 0x0 RETURN INVALID PUSH1 0x80 PUSH1 0x40 MSTORE CALLVALUE DUP1 ISZERO PUSH2 0x10 JUMPI PUSH1 0x0 DUP1 REVERT JUMPDEST POP PUSH1 0x4 CALLDATASIZE LT PUSH2 0x36 JUMPI PUSH1 0x0 CALLDATALOAD PUSH1 0xE0 SHR DUP1 PUSH4 0x3FA4F245 EQ PUSH2 0x3B JUMPI DUP1 PUSH4 0x8DFA4363 EQ PUSH2 0x59 JUMPI JUMPDEST PUSH1 0x0 DUP1 REVERT JUMPDEST PUSH2 0x43 PUSH2 0x75 JUMP JUMPDEST PUSH1 0x40 MLOAD PUSH2 0x50 SWAP2 SWAP1 PUSH2 0x117 JUMP JUMPDEST PUSH1 0x40 MLOAD DUP1 SWAP2 SUB SWAP1 RETURN JUMPDEST PUSH2 0x73 PUSH1 0x4 DUP1 CALLDATASIZE SUB DUP2 ADD SWAP1 PUSH2 0x6E SWAP2 SWAP1 PUSH2 0xCC JUMP JUMPDEST PUSH2 0x7B JUMP JUMPDEST STOP JUMPDEST PUSH1 0x0 SLOAD DUP2 JUMP JUMPDEST PUSH2 0x85 DUP3 DUP3 PUSH2 0x8F JUMP JUMPDEST PUSH1 0x0 DUP2 SWAP1 SSTORE POP POP POP JUMP JUMPDEST PUSH1 0x0 DUP1 DUP3 GT PUSH2 0x9D JUMPI PUSH1 0x0 DUP1 REVERT JUMPDEST PUSH1 0x0 DUP3 DUP5 PUSH2 0xAB SWAP2 SWAP1 PUSH2 0x132 JUMP JUMPDEST SWAP1 POP DUP1 SWAP2 POP POP SWAP3 SWAP2 POP POP JUMP JUMPDEST PUSH1 0x0 DUP2 CALLDATALOAD SWAP1 POP PUSH2 0xC6 DUP2 PUSH2 0x19C JUMP JUMPDEST SWAP3 SWAP2 POP POP JUMP JUMPDEST PUSH1 0x0 DUP1 PUSH1 0x40 DUP4 DUP6 SUB SLT ISZERO PUSH2 0xDF JUMPI PUSH1 0x0 DUP1 REVERT JUMPDEST PUSH1 0x0 PUSH2 0xED DUP6 DUP3 DUP7 ADD PUSH2 0xB7 JUMP JUMPDEST SWAP3 POP POP PUSH1 0x20 PUSH2 0xFE DUP6 DUP3 DUP7 ADD PUSH2 0xB7 JUMP JUMPDEST SWAP2 POP POP SWAP3 POP SWAP3 SWAP1 POP JUMP JUMPDEST PUSH2 0x111 DUP2 PUSH2 0x163 JUMP JUMPDEST DUP3 MSTORE POP POP JUMP JUMPDEST PUSH1 0x0 PUSH1 0x20 DUP3 ADD SWAP1 POP PUSH2 0x12C PUSH1 0x0 DUP4 ADD DUP5 PUSH2 0x108 JUMP JUMPDEST SWAP3 SWAP2 POP POP JUMP JUMPDEST PUSH1 0x0 PUSH2 0x13D DUP3 PUSH2 0x163 JUMP JUMPDEST SWAP2 POP PUSH2 0x148 DUP4 PUSH2 0x163 JUMP JUMPDEST SWAP3 POP DUP3 PUSH2 0x158 JUMPI PUSH2 0x157 PUSH2 0x16D JUMP JUMPDEST JUMPDEST DUP3 DUP3 DIV SWAP1 POP SWAP3 SWAP2 POP POP JUMP JUMPDEST PUSH1 0x0 DUP2 SWAP1 POP SWAP2 SWAP1 POP JUMP JUMPDEST PUSH32 0x4E487B7100000000000000000000000000000000000000000000000000000000 PUSH1 0x0 MSTORE PUSH1 0x12 PUSH1 0x4 MSTORE PUSH1 0x24 PUSH1 0x0 REVERT JUMPDEST PUSH2 0x1A5 DUP2 PUSH2 0x163 JUMP JUMPDEST DUP2 EQ PUSH2 0x1B0 JUMPI PUSH1 0x0 DUP1 REVERT JUMPDEST POP JUMP INVALID LOG2 PUSH5 0x6970667358 0x22 SLT KECCAK256 BYTE BALANCE 0xE3 DUP6 GAS 0xCE 0xF GASPRICE SWAP7 MLOAD EXTCODEHASH JUMPDEST 0x23 CALLDATASIZE 0xD4 0x21 0xE0 CALLDATACOPY PUSH16 0xD924096FBC2B9B6E693B84F4BD64736F PUSH13 0x63430008000033000000000000 "
		},
		"gasEstimates": {
			"creation": {
				"codeDepositCost": "97800",
				"executionCost": "147",
				"totalCost": "97947"
			},
			"external": {
				"calculate(uint256,uint256)": "infinite",
				"value()": "1107"
			}
		},
		"methodIdentifiers": {
			"calculate(uint256,uint256)": "8dfa4363",
			"value()": "3fa4f245"
		}
	},
	"abi": [
		{
			"inputs": [
				{
					"internalType": "uint256",
					"name": "value1",
					"type": "uint256"
				},
				{
					"internalType": "uint256",
					"name": "value2",
					"type": "uint256"
				}
			],
			"name": "calculate",
			"outputs": [],
			"stateMutability": "nonpayable",
			"type": "function"
		},
		{
			"inputs": [],
			"name": "value",
			"outputs": [
				{
					"internalType": "uint256",
					"name": "",
					"type": "uint256"
				}
			],
			"stateMutability": "view",
			"type": "function"
		}
	]
}